{
  "_format": "hh-sol-artifact-1",
  "contractName": "RealID",
  "sourceName": "contracts/RealID.sol",
  "abi": [
    {
      "inputs": [
        {
          "internalType": "uint256",
          "name": "price",
          "type": "uint256"
        }
      ],
      "stateMutability": "payable",
      "type": "constructor"
    },
    {
      "anonymous": false,
      "inputs": [
        {
          "indexed": true,
          "internalType": "address",
          "name": "previousOwner",
          "type": "address"
        },
        {
          "indexed": true,
          "internalType": "address",
          "name": "newOwner",
          "type": "address"
        }
      ],
      "name": "OwnershipTransferred",
      "type": "event"
    },
    {
      "inputs": [
        {
          "internalType": "address",
          "name": "addy",
          "type": "address"
        },
        {
          "internalType": "bytes32",
          "name": "hash",
          "type": "bytes32"
        }
      ],
      "name": "addHash",
      "outputs": [],
      "stateMutability": "nonpayable",
      "type": "function"
    },
    {
      "inputs": [
        {
          "internalType": "address",
          "name": "addy",
          "type": "address"
        },
        {
          "internalType": "bytes32",
          "name": "hash",
          "type": "bytes32"
        }
      ],
      "name": "addHashGuest",
      "outputs": [],
      "stateMutability": "nonpayable",
      "type": "function"
    },
    {
      "inputs": [],
      "name": "balance",
      "outputs": [
        {
          "internalType": "uint256",
          "name": "",
          "type": "uint256"
        }
      ],
      "stateMutability": "view",
      "type": "function"
    },
    {
      "inputs": [],
      "name": "deposit",
      "outputs": [],
      "stateMutability": "payable",
      "type": "function"
    },
    {
      "inputs": [
        {
          "internalType": "address",
          "name": "addy",
          "type": "address"
        }
      ],
      "name": "getHash",
      "outputs": [
        {
          "internalType": "bytes32",
          "name": "",
          "type": "bytes32"
        }
      ],
      "stateMutability": "view",
      "type": "function"
    },
    {
      "inputs": [],
      "name": "getPrice",
      "outputs": [
        {
          "internalType": "uint256",
          "name": "",
          "type": "uint256"
        }
      ],
      "stateMutability": "view",
      "type": "function"
    },
    {
      "inputs": [
        {
          "internalType": "address",
          "name": "addy",
          "type": "address"
        }
      ],
      "name": "hasHash",
      "outputs": [
        {
          "internalType": "bool",
          "name": "",
          "type": "bool"
        }
      ],
      "stateMutability": "view",
      "type": "function"
    },
    {
      "inputs": [
        {
          "internalType": "bytes32",
          "name": "hash",
          "type": "bytes32"
        }
      ],
      "name": "knownHash",
      "outputs": [
        {
          "internalType": "bool",
          "name": "",
          "type": "bool"
        }
      ],
      "stateMutability": "view",
      "type": "function"
    },
    {
      "inputs": [
        {
          "internalType": "bytes32",
          "name": "hash",
          "type": "bytes32"
        }
      ],
      "name": "knownHashAddress",
      "outputs": [
        {
          "internalType": "address",
          "name": "",
          "type": "address"
        }
      ],
      "stateMutability": "view",
      "type": "function"
    },
    {
      "inputs": [],
      "name": "owner",
      "outputs": [
        {
          "internalType": "address",
          "name": "",
          "type": "address"
        }
      ],
      "stateMutability": "view",
      "type": "function"
    },
    {
      "inputs": [
        {
          "internalType": "address",
          "name": "addy",
          "type": "address"
        }
      ],
      "name": "paid",
      "outputs": [
        {
          "internalType": "bool",
          "name": "",
          "type": "bool"
        }
      ],
      "stateMutability": "view",
      "type": "function"
    },
    {
      "inputs": [],
      "name": "renounceOwnership",
      "outputs": [],
      "stateMutability": "nonpayable",
      "type": "function"
    },
    {
      "inputs": [
        {
          "internalType": "uint256",
          "name": "newPrice",
          "type": "uint256"
        }
      ],
      "name": "setPrice",
      "outputs": [],
      "stateMutability": "nonpayable",
      "type": "function"
    },
    {
      "inputs": [
        {
          "internalType": "address",
          "name": "newOwner",
          "type": "address"
        }
      ],
      "name": "transferOwnership",
      "outputs": [],
      "stateMutability": "nonpayable",
      "type": "function"
    },
    {
      "inputs": [
        {
          "internalType": "uint256",
          "name": "amt",
          "type": "uint256"
        }
      ],
      "name": "withdraw",
      "outputs": [],
      "stateMutability": "nonpayable",
      "type": "function"
    }
  ],
  "bytecode": "0x6080604052604051620015e2380380620015e2833981810160405281019062000029919062000141565b620000496200003d6200005e60201b60201c565b6200006660201b60201c565b60018081905550806005819055505062000191565b600033905090565b60008060009054906101000a900473ffffffffffffffffffffffffffffffffffffffff169050816000806101000a81548173ffffffffffffffffffffffffffffffffffffffff021916908373ffffffffffffffffffffffffffffffffffffffff1602179055508173ffffffffffffffffffffffffffffffffffffffff168173ffffffffffffffffffffffffffffffffffffffff167f8be0079c531659141344cd1fd0a4f28419497f9722a3daafe3b4186f6b6457e060405160405180910390a35050565b6000815190506200013b8162000177565b92915050565b6000602082840312156200015457600080fd5b600062000164848285016200012a565b91505092915050565b6000819050919050565b62000182816200016d565b81146200018e57600080fd5b50565b61144180620001a16000396000f3fe6080604052600436106100e85760003560e01c806391b7f5ed1161008a578063b69ef8a811610059578063b69ef8a814610306578063d0e30db014610331578063f2fde38b1461033b578063f7667e4814610364576100e8565b806391b7f5ed1461023857806398d5fdca14610261578063a340cf791461028c578063b62a2fb3146102c9576100e8565b8063765e1dcf116100c6578063765e1dcf1461016a578063813b00b6146101a75780638baeeb1a146101d05780638da5cb5b1461020d576100e8565b80631da0b8fc146100ed5780632e1a7d4d1461012a578063715018a614610153575b600080fd5b3480156100f957600080fd5b50610114600480360381019061010f9190610f10565b61038d565b6040516101219190611143565b60405180910390f35b34801561013657600080fd5b50610151600480360381019061014c9190610f9e565b6103d6565b005b34801561015f57600080fd5b5061016861054c565b005b34801561017657600080fd5b50610191600480360381019061018c9190610f75565b6105d4565b60405161019e919061110d565b60405180910390f35b3480156101b357600080fd5b506101ce60048036038101906101c99190610f39565b61068d565b005b3480156101dc57600080fd5b506101f760048036038101906101f29190610f75565b61088e565b6040516102049190611128565b60405180910390f35b34801561021957600080fd5b50610222610977565b60405161022f919061110d565b60405180910390f35b34801561024457600080fd5b5061025f600480360381019061025a9190610f9e565b6109a0565b005b34801561026d57600080fd5b50610276610a26565b604051610283919061121e565b60405180910390f35b34801561029857600080fd5b506102b360048036038101906102ae9190610f10565b610a30565b6040516102c09190611128565b60405180910390f35b3480156102d557600080fd5b506102f060048036038101906102eb9190610f10565b610a86565b6040516102fd9190611128565b60405180910390f35b34801561031257600080fd5b5061031b610ad5565b604051610328919061121e565b60405180910390f35b610339610b59565b005b34801561034757600080fd5b50610362600480360381019061035d9190610f10565b610bf7565b005b34801561037057600080fd5b5061038b60048036038101906103869190610f39565b610cef565b005b6000600360008373ffffffffffffffffffffffffffffffffffffffff1673ffffffffffffffffffffffffffffffffffffffff168152602001908152602001600020549050919050565b6103de610e05565b73ffffffffffffffffffffffffffffffffffffffff166103fc610977565b73ffffffffffffffffffffffffffffffffffffffff1614610452576040517f08c379a0000000000000000000000000000000000000000000000000000000008152600401610449906111be565b60405180910390fd5b47811115610495576040517f08c379a000000000000000000000000000000000000000000000000000000000815260040161048c906111de565b60405180910390fd5b600061049f610977565b73ffffffffffffffffffffffffffffffffffffffff16826040516104c2906110f8565b60006040518083038185875af1925050503d80600081146104ff576040519150601f19603f3d011682016040523d82523d6000602084013e610504565b606091505b5050905080610548576040517f08c379a000000000000000000000000000000000000000000000000000000000815260040161053f9061119e565b60405180910390fd5b5050565b610554610e05565b73ffffffffffffffffffffffffffffffffffffffff16610572610977565b73ffffffffffffffffffffffffffffffffffffffff16146105c8576040517f08c379a00000000000000000000000000000000000000000000000000000000081526004016105bf906111be565b60405180910390fd5b6105d26000610e0d565b565b60006105de610e05565b73ffffffffffffffffffffffffffffffffffffffff166105fc610977565b73ffffffffffffffffffffffffffffffffffffffff1614610652576040517f08c379a0000000000000000000000000000000000000000000000000000000008152600401610649906111be565b60405180910390fd5b6004600083815260200190815260200160002060009054906101000a900473ffffffffffffffffffffffffffffffffffffffff169050919050565b610695610e05565b73ffffffffffffffffffffffffffffffffffffffff166106b3610977565b73ffffffffffffffffffffffffffffffffffffffff1614610709576040517f08c379a0000000000000000000000000000000000000000000000000000000008152600401610700906111be565b60405180910390fd5b60011515600260008473ffffffffffffffffffffffffffffffffffffffff1673ffffffffffffffffffffffffffffffffffffffff16815260200190815260200160002060009054906101000a900460ff1615151461079c576040517f08c379a00000000000000000000000000000000000000000000000000000000081526004016107939061115e565b60405180910390fd5b80600360008473ffffffffffffffffffffffffffffffffffffffff1673ffffffffffffffffffffffffffffffffffffffff16815260200190815260200160002081905550816004600083815260200190815260200160002060006101000a81548173ffffffffffffffffffffffffffffffffffffffff021916908373ffffffffffffffffffffffffffffffffffffffff1602179055506000600260008473ffffffffffffffffffffffffffffffffffffffff1673ffffffffffffffffffffffffffffffffffffffff16815260200190815260200160002060006101000a81548160ff0219169083151502179055505050565b6000610898610e05565b73ffffffffffffffffffffffffffffffffffffffff166108b6610977565b73ffffffffffffffffffffffffffffffffffffffff161461090c576040517f08c379a0000000000000000000000000000000000000000000000000000000008152600401610903906111be565b60405180910390fd5b600073ffffffffffffffffffffffffffffffffffffffff166004600084815260200190815260200160002060009054906101000a900473ffffffffffffffffffffffffffffffffffffffff1673ffffffffffffffffffffffffffffffffffffffff1614159050919050565b60008060009054906101000a900473ffffffffffffffffffffffffffffffffffffffff16905090565b6109a8610e05565b73ffffffffffffffffffffffffffffffffffffffff166109c6610977565b73ffffffffffffffffffffffffffffffffffffffff1614610a1c576040517f08c379a0000000000000000000000000000000000000000000000000000000008152600401610a13906111be565b60405180910390fd5b8060058190555050565b6000600554905090565b6000600260008373ffffffffffffffffffffffffffffffffffffffff1673ffffffffffffffffffffffffffffffffffffffff16815260200190815260200160002060009054906101000a900460ff169050919050565b60008060001b600360008473ffffffffffffffffffffffffffffffffffffffff1673ffffffffffffffffffffffffffffffffffffffff1681526020019081526020016000205414159050919050565b6000610adf610e05565b73ffffffffffffffffffffffffffffffffffffffff16610afd610977565b73ffffffffffffffffffffffffffffffffffffffff1614610b53576040517f08c379a0000000000000000000000000000000000000000000000000000000008152600401610b4a906111be565b60405180910390fd5b47905090565b6005543414610b9d576040517f08c379a0000000000000000000000000000000000000000000000000000000008152600401610b94906111fe565b60405180910390fd5b6001600260003373ffffffffffffffffffffffffffffffffffffffff1673ffffffffffffffffffffffffffffffffffffffff16815260200190815260200160002060006101000a81548160ff021916908315150217905550565b610bff610e05565b73ffffffffffffffffffffffffffffffffffffffff16610c1d610977565b73ffffffffffffffffffffffffffffffffffffffff1614610c73576040517f08c379a0000000000000000000000000000000000000000000000000000000008152600401610c6a906111be565b60405180910390fd5b600073ffffffffffffffffffffffffffffffffffffffff168173ffffffffffffffffffffffffffffffffffffffff161415610ce3576040517f08c379a0000000000000000000000000000000000000000000000000000000008152600401610cda9061117e565b60405180910390fd5b610cec81610e0d565b50565b610cf7610e05565b73ffffffffffffffffffffffffffffffffffffffff16610d15610977565b73ffffffffffffffffffffffffffffffffffffffff1614610d6b576040517f08c379a0000000000000000000000000000000000000000000000000000000008152600401610d62906111be565b60405180910390fd5b80600360008473ffffffffffffffffffffffffffffffffffffffff1673ffffffffffffffffffffffffffffffffffffffff16815260200190815260200160002081905550816004600083815260200190815260200160002060006101000a81548173ffffffffffffffffffffffffffffffffffffffff021916908373ffffffffffffffffffffffffffffffffffffffff1602179055505050565b600033905090565b60008060009054906101000a900473ffffffffffffffffffffffffffffffffffffffff169050816000806101000a81548173ffffffffffffffffffffffffffffffffffffffff021916908373ffffffffffffffffffffffffffffffffffffffff1602179055508173ffffffffffffffffffffffffffffffffffffffff168173ffffffffffffffffffffffffffffffffffffffff167f8be0079c531659141344cd1fd0a4f28419497f9722a3daafe3b4186f6b6457e060405160405180910390a35050565b600081359050610ee0816113c6565b92915050565b600081359050610ef5816113dd565b92915050565b600081359050610f0a816113f4565b92915050565b600060208284031215610f2257600080fd5b6000610f3084828501610ed1565b91505092915050565b60008060408385031215610f4c57600080fd5b6000610f5a85828601610ed1565b9250506020610f6b85828601610ee6565b9150509250929050565b600060208284031215610f8757600080fd5b6000610f9584828501610ee6565b91505092915050565b600060208284031215610fb057600080fd5b6000610fbe84828501610efb565b91505092915050565b610fd081611255565b82525050565b610fdf81611267565b82525050565b610fee81611273565b82525050565b6000611001600883611244565b915061100c826112a7565b602082019050919050565b6000611024602683611244565b915061102f826112d0565b604082019050919050565b6000611047601483611244565b91506110528261131f565b602082019050919050565b600061106a602083611244565b915061107582611348565b602082019050919050565b600061108d601483611244565b915061109882611371565b602082019050919050565b60006110b0600083611239565b91506110bb8261139a565b600082019050919050565b60006110d3601483611244565b91506110de8261139d565b602082019050919050565b6110f28161129d565b82525050565b6000611103826110a3565b9150819050919050565b60006020820190506111226000830184610fc7565b92915050565b600060208201905061113d6000830184610fd6565b92915050565b60006020820190506111586000830184610fe5565b92915050565b6000602082019050818103600083015261117781610ff4565b9050919050565b6000602082019050818103600083015261119781611017565b9050919050565b600060208201905081810360008301526111b78161103a565b9050919050565b600060208201905081810360008301526111d78161105d565b9050919050565b600060208201905081810360008301526111f781611080565b9050919050565b60006020820190508181036000830152611217816110c6565b9050919050565b600060208201905061123360008301846110e9565b92915050565b600081905092915050565b600082825260208201905092915050565b60006112608261127d565b9050919050565b60008115159050919050565b6000819050919050565b600073ffffffffffffffffffffffffffffffffffffffff82169050919050565b6000819050919050565b7f6e6f742070616964000000000000000000000000000000000000000000000000600082015250565b7f4f776e61626c653a206e6577206f776e657220697320746865207a65726f206160008201527f6464726573730000000000000000000000000000000000000000000000000000602082015250565b7f4661696c656420746f2073656e64204574686572000000000000000000000000600082015250565b7f4f776e61626c653a2063616c6c6572206973206e6f7420746865206f776e6572600082015250565b7f696e73756666696369656e742062616c616e6365000000000000000000000000600082015250565b50565b7f77726f6e67206465706f73697420616d6f756e74000000000000000000000000600082015250565b6113cf81611255565b81146113da57600080fd5b50565b6113e681611273565b81146113f157600080fd5b50565b6113fd8161129d565b811461140857600080fd5b5056fea2646970667358221220894067d44ae795839e8a07a967444b2360bdde8c2b0ebf9cb11c0b1d6f72ed7964736f6c63430008040033",
  "linkReferences": {},
  "deployedLinkReferences": {}
}